{
  "_format": "hh-sol-artifact-1",
  "contractName": "MyEpicNFT",
  "sourceName": "contracts/MyEpicNFT.sol",
  "abi": [
    {
      "inputs": [],
      "stateMutability": "nonpayable",
      "type": "constructor"
    },
    {
      "anonymous": false,
      "inputs": [
        {
          "indexed": true,
          "internalType": "address",
          "name": "owner",
          "type": "address"
        },
        {
          "indexed": true,
          "internalType": "address",
          "name": "approved",
          "type": "address"
        },
        {
          "indexed": true,
          "internalType": "uint256",
          "name": "tokenId",
          "type": "uint256"
        }
      ],
      "name": "Approval",
      "type": "event"
    },
    {
      "anonymous": false,
      "inputs": [
        {
          "indexed": true,
          "internalType": "address",
          "name": "owner",
          "type": "address"
        },
        {
          "indexed": true,
          "internalType": "address",
          "name": "operator",
          "type": "address"
        },
        {
          "indexed": false,
          "internalType": "bool",
          "name": "approved",
          "type": "bool"
        }
      ],
      "name": "ApprovalForAll",
      "type": "event"
    },
    {
      "anonymous": false,
      "inputs": [
        {
          "indexed": false,
          "internalType": "address",
          "name": "sender",
          "type": "address"
        },
        {
          "indexed": false,
          "internalType": "uint256",
          "name": "tokenId",
          "type": "uint256"
        }
      ],
      "name": "NewEpicNFTMinted",
      "type": "event"
    },
    {
      "anonymous": false,
      "inputs": [
        {
          "indexed": true,
          "internalType": "address",
          "name": "from",
          "type": "address"
        },
        {
          "indexed": true,
          "internalType": "address",
          "name": "to",
          "type": "address"
        },
        {
          "indexed": true,
          "internalType": "uint256",
          "name": "tokenId",
          "type": "uint256"
        }
      ],
      "name": "Transfer",
      "type": "event"
    },
    {
      "inputs": [],
      "name": "TotalMint",
      "outputs": [
        {
          "internalType": "uint256",
          "name": "",
          "type": "uint256"
        }
      ],
      "stateMutability": "view",
      "type": "function"
    },
    {
      "inputs": [
        {
          "internalType": "address",
          "name": "to",
          "type": "address"
        },
        {
          "internalType": "uint256",
          "name": "tokenId",
          "type": "uint256"
        }
      ],
      "name": "approve",
      "outputs": [],
      "stateMutability": "nonpayable",
      "type": "function"
    },
    {
      "inputs": [
        {
          "internalType": "address",
          "name": "owner",
          "type": "address"
        }
      ],
      "name": "balanceOf",
      "outputs": [
        {
          "internalType": "uint256",
          "name": "",
          "type": "uint256"
        }
      ],
      "stateMutability": "view",
      "type": "function"
    },
    {
      "inputs": [
        {
          "internalType": "uint256",
          "name": "tokenId",
          "type": "uint256"
        }
      ],
      "name": "getApproved",
      "outputs": [
        {
          "internalType": "address",
          "name": "",
          "type": "address"
        }
      ],
      "stateMutability": "view",
      "type": "function"
    },
    {
      "inputs": [
        {
          "internalType": "address",
          "name": "owner",
          "type": "address"
        },
        {
          "internalType": "address",
          "name": "operator",
          "type": "address"
        }
      ],
      "name": "isApprovedForAll",
      "outputs": [
        {
          "internalType": "bool",
          "name": "",
          "type": "bool"
        }
      ],
      "stateMutability": "view",
      "type": "function"
    },
    {
      "inputs": [],
      "name": "makeAnEpicNFT",
      "outputs": [],
      "stateMutability": "nonpayable",
      "type": "function"
    },
    {
      "inputs": [],
      "name": "name",
      "outputs": [
        {
          "internalType": "string",
          "name": "",
          "type": "string"
        }
      ],
      "stateMutability": "view",
      "type": "function"
    },
    {
      "inputs": [
        {
          "internalType": "uint256",
          "name": "tokenId",
          "type": "uint256"
        }
      ],
      "name": "ownerOf",
      "outputs": [
        {
          "internalType": "address",
          "name": "",
          "type": "address"
        }
      ],
      "stateMutability": "view",
      "type": "function"
    },
    {
      "inputs": [
        {
          "internalType": "uint256",
          "name": "tokenId",
          "type": "uint256"
        }
      ],
      "name": "pickRandomFirstWord",
      "outputs": [
        {
          "internalType": "string",
          "name": "",
          "type": "string"
        }
      ],
      "stateMutability": "view",
      "type": "function"
    },
    {
      "inputs": [
        {
          "internalType": "uint256",
          "name": "tokenId",
          "type": "uint256"
        }
      ],
      "name": "pickRandomSecondWord",
      "outputs": [
        {
          "internalType": "string",
          "name": "",
          "type": "string"
        }
      ],
      "stateMutability": "view",
      "type": "function"
    },
    {
      "inputs": [
        {
          "internalType": "uint256",
          "name": "tokenId",
          "type": "uint256"
        }
      ],
      "name": "pickRandomThirdWord",
      "outputs": [
        {
          "internalType": "string",
          "name": "",
          "type": "string"
        }
      ],
      "stateMutability": "view",
      "type": "function"
    },
    {
      "inputs": [
        {
          "internalType": "address",
          "name": "from",
          "type": "address"
        },
        {
          "internalType": "address",
          "name": "to",
          "type": "address"
        },
        {
          "internalType": "uint256",
          "name": "tokenId",
          "type": "uint256"
        }
      ],
      "name": "safeTransferFrom",
      "outputs": [],
      "stateMutability": "nonpayable",
      "type": "function"
    },
    {
      "inputs": [
        {
          "internalType": "address",
          "name": "from",
          "type": "address"
        },
        {
          "internalType": "address",
          "name": "to",
          "type": "address"
        },
        {
          "internalType": "uint256",
          "name": "tokenId",
          "type": "uint256"
        },
        {
          "internalType": "bytes",
          "name": "_data",
          "type": "bytes"
        }
      ],
      "name": "safeTransferFrom",
      "outputs": [],
      "stateMutability": "nonpayable",
      "type": "function"
    },
    {
      "inputs": [
        {
          "internalType": "address",
          "name": "operator",
          "type": "address"
        },
        {
          "internalType": "bool",
          "name": "approved",
          "type": "bool"
        }
      ],
      "name": "setApprovalForAll",
      "outputs": [],
      "stateMutability": "nonpayable",
      "type": "function"
    },
    {
      "inputs": [
        {
          "internalType": "bytes4",
          "name": "interfaceId",
          "type": "bytes4"
        }
      ],
      "name": "supportsInterface",
      "outputs": [
        {
          "internalType": "bool",
          "name": "",
          "type": "bool"
        }
      ],
      "stateMutability": "view",
      "type": "function"
    },
    {
      "inputs": [],
      "name": "symbol",
      "outputs": [
        {
          "internalType": "string",
          "name": "",
          "type": "string"
        }
      ],
      "stateMutability": "view",
      "type": "function"
    },
    {
      "inputs": [
        {
          "internalType": "uint256",
          "name": "tokenId",
          "type": "uint256"
        }
      ],
      "name": "tokenURI",
      "outputs": [
        {
          "internalType": "string",
          "name": "",
          "type": "string"
        }
      ],
      "stateMutability": "view",
      "type": "function"
    },
    {
      "inputs": [
        {
          "internalType": "address",
          "name": "from",
          "type": "address"
        },
        {
          "internalType": "address",
          "name": "to",
          "type": "address"
        },
        {
          "internalType": "uint256",
          "name": "tokenId",
          "type": "uint256"
        }
      ],
      "name": "transferFrom",
      "outputs": [],
      "stateMutability": "nonpayable",
      "type": "function"
    }
  ],
  "bytecode": "0x608060405260405180610160016040528061012f81526020016200454f61012f91396008908051906020019062000038929190620005cd565b506040518060a001604052806040518060400160405280600181526020017f310000000000000000000000000000000000000000000000000000000000000081525081526020016040518060400160405280600181526020017f320000000000000000000000000000000000000000000000000000000000000081525081526020016040518060400160405280600181526020017f330000000000000000000000000000000000000000000000000000000000000081525081526020016040518060400160405280600181526020017f340000000000000000000000000000000000000000000000000000000000000081525081526020016040518060400160405280600181526020017f350000000000000000000000000000000000000000000000000000000000000081525081525060099060056200017b9291906200065e565b506040518060a001604052806040518060400160405280600581526020017f6170706c6500000000000000000000000000000000000000000000000000000081525081526020016040518060400160405280600681526020017f62616e616e61000000000000000000000000000000000000000000000000000081525081526020016040518060400160405280600581526020017f6d656c6f6e00000000000000000000000000000000000000000000000000000081525081526020016040518060400160405280600581526020017f72656d6f6e00000000000000000000000000000000000000000000000000000081525081526020016040518060400160405280600581526020017f7065616368000000000000000000000000000000000000000000000000000000815250815250600a906005620002be9291906200065e565b506040518060a001604052806040518060400160405280600281526020017f414100000000000000000000000000000000000000000000000000000000000081525081526020016040518060400160405280600281526020017f424200000000000000000000000000000000000000000000000000000000000081525081526020016040518060400160405280600281526020017f434300000000000000000000000000000000000000000000000000000000000081525081526020016040518060400160405280600281526020017f444400000000000000000000000000000000000000000000000000000000000081525081526020016040518060400160405280600281526020017f4545000000000000000000000000000000000000000000000000000000000000815250815250600b906005620004019291906200065e565b503480156200040f57600080fd5b506040518060400160405280600881526020017f4d4f524541555f320000000000000000000000000000000000000000000000008152506040518060400160405280600481526020017f4d4f524f00000000000000000000000000000000000000000000000000000000815250816000908051906020019062000494929190620005cd565b508060019080519060200190620004ad929190620005cd565b505050620004fb6040518060400160405280601881526020017f54686973206973206d79204e465420636f6e74726163742e00000000000000008152506200050160201b620012501760201c565b6200087f565b620005a18160405160240162000518919062000793565b6040516020818303038152906040527f41304fac000000000000000000000000000000000000000000000000000000007bffffffffffffffffffffffffffffffffffffffffffffffffffffffff19166020820180517bffffffffffffffffffffffffffffffffffffffffffffffffffffffff8381831617835250505050620005a460201b60201c565b50565b60008151905060006a636f6e736f6c652e6c6f679050602083016000808483855afa5050505050565b828054620005db9062000809565b90600052602060002090601f016020900481019282620005ff57600085556200064b565b82601f106200061a57805160ff19168380011785556200064b565b828001600101855582156200064b579182015b828111156200064a5782518255916020019190600101906200062d565b5b5090506200065a9190620006c5565b5090565b828054828255906000526020600020908101928215620006b2579160200282015b82811115620006b1578251829080519060200190620006a0929190620005cd565b50916020019190600101906200067f565b5b509050620006c19190620006e4565b5090565b5b80821115620006e0576000816000905550600101620006c6565b5090565b5b80821115620007085760008181620006fe91906200070c565b50600101620006e5565b5090565b5080546200071a9062000809565b6000825580601f106200072e57506200074f565b601f0160209004906000526020600020908101906200074e9190620006c5565b5b50565b60006200075f82620007b7565b6200076b8185620007c2565b93506200077d818560208601620007d3565b62000788816200086e565b840191505092915050565b60006020820190508181036000830152620007af818462000752565b905092915050565b600081519050919050565b600082825260208201905092915050565b60005b83811015620007f3578082015181840152602081019050620007d6565b8381111562000803576000848401525b50505050565b600060028204905060018216806200082257607f821691505b602082108114156200083957620008386200083f565b5b50919050565b7f4e487b7100000000000000000000000000000000000000000000000000000000600052602260045260246000fd5b6000601f19601f8301169050919050565b613cc0806200088f6000396000f3fe608060405234801561001057600080fd5b50600436106101165760003560e01c806395d89b41116100a2578063c575757a11610071578063c575757a14610303578063c87b56dd14610333578063de9d132f14610363578063e5063b791461036d578063e985e9c51461038b57610116565b806395d89b411461027d578063a22cb4651461029b578063b187301f146102b7578063b88d4fde146102e757610116565b806323b872dd116100e957806323b872dd146101b55780632de38d68146101d157806342842e0e146102015780636352211e1461021d57806370a082311461024d57610116565b806301ffc9a71461011b57806306fdde031461014b578063081812fc14610169578063095ea7b314610199575b600080fd5b61013560048036038101906101309190612718565b6103bb565b6040516101429190612e5f565b60405180910390f35b61015361049d565b6040516101609190612e7a565b60405180910390f35b610183600480360381019061017e919061276a565b61052f565b6040516101909190612dcf565b60405180910390f35b6101b360048036038101906101ae91906126dc565b6105b4565b005b6101cf60048036038101906101ca91906125d6565b6106cc565b005b6101eb60048036038101906101e6919061276a565b61072c565b6040516101f89190612e7a565b60405180910390f35b61021b600480360381019061021691906125d6565b6108c8565b005b6102376004803603810190610232919061276a565b6108e8565b6040516102449190612dcf565b60405180910390f35b61026760048036038101906102629190612571565b61099a565b604051610274919061312a565b60405180910390f35b610285610a52565b6040516102929190612e7a565b60405180910390f35b6102b560048036038101906102b091906126a0565b610ae4565b005b6102d160048036038101906102cc919061276a565b610afa565b6040516102de9190612e7a565b60405180910390f35b61030160048036038101906102fc9190612625565b610c18565b005b61031d6004803603810190610318919061276a565b610c7a565b60405161032a9190612e7a565b60405180910390f35b61034d6004803603810190610348919061276a565b610d98565b60405161035a9190612e7a565b60405180910390f35b61036b610eea565b005b6103756111a6565b604051610382919061312a565b60405180910390f35b6103a560048036038101906103a0919061259a565b6111bc565b6040516103b29190612e5f565b60405180910390f35b60007f80ac58cd000000000000000000000000000000000000000000000000000000007bffffffffffffffffffffffffffffffffffffffffffffffffffffffff1916827bffffffffffffffffffffffffffffffffffffffffffffffffffffffff1916148061048657507f5b5e139f000000000000000000000000000000000000000000000000000000007bffffffffffffffffffffffffffffffffffffffffffffffffffffffff1916827bffffffffffffffffffffffffffffffffffffffffffffffffffffffff1916145b806104965750610495826112e9565b5b9050919050565b6060600080546104ac906133be565b80601f01602080910402602001604051908101604052809291908181526020018280546104d8906133be565b80156105255780601f106104fa57610100808354040283529160200191610525565b820191906000526020600020905b81548152906001019060200180831161050857829003601f168201915b5050505050905090565b600061053a82611353565b610579576040517f08c379a0000000000000000000000000000000000000000000000000000000008152600401610570906130aa565b60405180910390fd5b6004600083815260200190815260200160002060009054906101000a900473ffffffffffffffffffffffffffffffffffffffff169050919050565b60006105bf826108e8565b90508073ffffffffffffffffffffffffffffffffffffffff168373ffffffffffffffffffffffffffffffffffffffff161415610630576040517f08c379a0000000000000000000000000000000000000000000000000000000008152600401610627906130ea565b60405180910390fd5b8073ffffffffffffffffffffffffffffffffffffffff1661064f6113bf565b73ffffffffffffffffffffffffffffffffffffffff16148061067e575061067d816106786113bf565b6111bc565b5b6106bd576040517f08c379a00000000000000000000000000000000000000000000000000000000081526004016106b490612fca565b60405180910390fd5b6106c783836113c7565b505050565b6106dd6106d76113bf565b82611480565b61071c576040517f08c379a00000000000000000000000000000000000000000000000000000000081526004016107139061310a565b60405180910390fd5b61072783838361155e565b505050565b6060600061076061073c846117c5565b60405160200161074c9190612d8b565b604051602081830303815290604052611972565b90506107a16040518060400160405280600c81526020017f72616e64202d736565643a200000000000000000000000000000000000000000815250826119a5565b600980549050816107b2919061346a565b90506107f36040518060400160405280601381526020017f72616e64202d20666972737420776f72643a2000000000000000000000000000815250826119a5565b6009818154811061082d577f4e487b7100000000000000000000000000000000000000000000000000000000600052603260045260246000fd5b906000526020600020018054610842906133be565b80601f016020809104026020016040519081016040528092919081815260200182805461086e906133be565b80156108bb5780601f10610890576101008083540402835291602001916108bb565b820191906000526020600020905b81548152906001019060200180831161089e57829003601f168201915b5050505050915050919050565b6108e383838360405180602001604052806000815250610c18565b505050565b6000806002600084815260200190815260200160002060009054906101000a900473ffffffffffffffffffffffffffffffffffffffff169050600073ffffffffffffffffffffffffffffffffffffffff168173ffffffffffffffffffffffffffffffffffffffff161415610991576040517f08c379a00000000000000000000000000000000000000000000000000000000081526004016109889061300a565b60405180910390fd5b80915050919050565b60008073ffffffffffffffffffffffffffffffffffffffff168273ffffffffffffffffffffffffffffffffffffffff161415610a0b576040517f08c379a0000000000000000000000000000000000000000000000000000000008152600401610a0290612fea565b60405180910390fd5b600360008373ffffffffffffffffffffffffffffffffffffffff1673ffffffffffffffffffffffffffffffffffffffff168152602001908152602001600020549050919050565b606060018054610a61906133be565b80601f0160208091040260200160405190810160405280929190818152602001828054610a8d906133be565b8015610ada5780601f10610aaf57610100808354040283529160200191610ada565b820191906000526020600020905b815481529060010190602001808311610abd57829003601f168201915b5050505050905090565b610af6610aef6113bf565b8383611a41565b5050565b60606000610b2e610b0a846117c5565b604051602001610b1a9190612d02565b604051602081830303815290604052611972565b9050600a8054905081610b41919061346a565b9050600a8181548110610b7d577f4e487b7100000000000000000000000000000000000000000000000000000000600052603260045260246000fd5b906000526020600020018054610b92906133be565b80601f0160208091040260200160405190810160405280929190818152602001828054610bbe906133be565b8015610c0b5780601f10610be057610100808354040283529160200191610c0b565b820191906000526020600020905b815481529060010190602001808311610bee57829003601f168201915b5050505050915050919050565b610c29610c236113bf565b83611480565b610c68576040517f08c379a0000000000000000000000000000000000000000000000000000000008152600401610c5f9061310a565b60405180910390fd5b610c7484848484611bae565b50505050565b60606000610cae610c8a846117c5565b604051602001610c9a9190612d24565b604051602081830303815290604052611972565b9050600b8054905081610cc1919061346a565b9050600b8181548110610cfd577f4e487b7100000000000000000000000000000000000000000000000000000000600052603260045260246000fd5b906000526020600020018054610d12906133be565b80601f0160208091040260200160405190810160405280929190818152602001828054610d3e906133be565b8015610d8b5780601f10610d6057610100808354040283529160200191610d8b565b820191906000526020600020905b815481529060010190602001808311610d6e57829003601f168201915b5050505050915050919050565b6060610da382611353565b610de2576040517f08c379a0000000000000000000000000000000000000000000000000000000008152600401610dd99061308a565b60405180910390fd5b6000600660008481526020019081526020016000208054610e02906133be565b80601f0160208091040260200160405190810160405280929190818152602001828054610e2e906133be565b8015610e7b5780601f10610e5057610100808354040283529160200191610e7b565b820191906000526020600020905b815481529060010190602001808311610e5e57829003601f168201915b505050505090506000610e8c611c0a565b9050600081511415610ea2578192505050610ee5565b600082511115610ed7578082604051602001610ebf929190612c64565b60405160208183030381529060405292505050610ee5565b610ee084611c21565b925050505b919050565b6005610ef66007611cc8565b10610f36576040517f08c379a0000000000000000000000000000000000000000000000000000000008152600401610f2d9061306a565b60405180910390fd5b6000610f426007611cc8565b90506000610f4f8261072c565b90506000610f5c83610afa565b90506000610f6984610c7a565b90506000838383604051602001610f8293929190612c88565b604051602081830303815290604052905060006008858585604051602001610fad9493929190612cb9565b6040516020818303038152906040529050610ffc6040518060400160405280601981526020017f0a2d2d2d2d2d205356472064617461202d2d2d2d2d2d2d2d2d00000000000000815250611250565b61100581611250565b6110436040518060400160405280601181526020017f2d2d2d2d2d2d2d2d2d2d2d2d2d2d2d2d0a000000000000000000000000000000815250611250565b60006110778361105284611cd6565b604051602001611063929190612d46565b604051602081830303815290604052611cd6565b905060008160405160200161108c9190612dad565b60405160208183030381529060405290506110db6040518060400160405280601581526020017f0a2d2d2d2d2d20546f6b656e20555249202d2d2d2d0000000000000000000000815250611250565b6110e481611250565b6111226040518060400160405280601581526020017f2d2d2d2d2d2d2d2d2d2d2d2d2d2d2d2d2d2d2d2d0a0000000000000000000000815250611250565b61112c3389611e94565b6111368882611eb2565b611159604051806060016040528060258152602001613c26602591398933611f26565b6111636007611fc5565b7febb98688741ffa4c7589bf325de30cf7becb63de567842e1ccdb6cb949fdc82c3389604051611194929190612e36565b60405180910390a15050505050505050565b6000806111b36007611cc8565b90508091505090565b6000600560008473ffffffffffffffffffffffffffffffffffffffff1673ffffffffffffffffffffffffffffffffffffffff16815260200190815260200160002060008373ffffffffffffffffffffffffffffffffffffffff1673ffffffffffffffffffffffffffffffffffffffff16815260200190815260200160002060009054906101000a900460ff16905092915050565b6112e6816040516024016112649190612e7a565b6040516020818303038152906040527f41304fac000000000000000000000000000000000000000000000000000000007bffffffffffffffffffffffffffffffffffffffffffffffffffffffff19166020820180517bffffffffffffffffffffffffffffffffffffffffffffffffffffffff8381831617835250505050611fdb565b50565b60007f01ffc9a7000000000000000000000000000000000000000000000000000000007bffffffffffffffffffffffffffffffffffffffffffffffffffffffff1916827bffffffffffffffffffffffffffffffffffffffffffffffffffffffff1916149050919050565b60008073ffffffffffffffffffffffffffffffffffffffff166002600084815260200190815260200160002060009054906101000a900473ffffffffffffffffffffffffffffffffffffffff1673ffffffffffffffffffffffffffffffffffffffff1614159050919050565b600033905090565b816004600083815260200190815260200160002060006101000a81548173ffffffffffffffffffffffffffffffffffffffff021916908373ffffffffffffffffffffffffffffffffffffffff160217905550808273ffffffffffffffffffffffffffffffffffffffff1661143a836108e8565b73ffffffffffffffffffffffffffffffffffffffff167f8c5be1e5ebec7d5bd14f71427d1e84f3dd0314c0f7b2291e5b200ac8c7c3b92560405160405180910390a45050565b600061148b82611353565b6114ca576040517f08c379a00000000000000000000000000000000000000000000000000000000081526004016114c190612faa565b60405180910390fd5b60006114d5836108e8565b90508073ffffffffffffffffffffffffffffffffffffffff168473ffffffffffffffffffffffffffffffffffffffff16148061154457508373ffffffffffffffffffffffffffffffffffffffff1661152c8461052f565b73ffffffffffffffffffffffffffffffffffffffff16145b80611555575061155481856111bc565b5b91505092915050565b8273ffffffffffffffffffffffffffffffffffffffff1661157e826108e8565b73ffffffffffffffffffffffffffffffffffffffff16146115d4576040517f08c379a00000000000000000000000000000000000000000000000000000000081526004016115cb90612f2a565b60405180910390fd5b600073ffffffffffffffffffffffffffffffffffffffff168273ffffffffffffffffffffffffffffffffffffffff161415611644576040517f08c379a000000000000000000000000000000000000000000000000000000000815260040161163b90612f6a565b60405180910390fd5b61164f838383612004565b61165a6000826113c7565b6001600360008573ffffffffffffffffffffffffffffffffffffffff1673ffffffffffffffffffffffffffffffffffffffff16815260200190815260200160002060008282546116aa91906132d4565b925050819055506001600360008473ffffffffffffffffffffffffffffffffffffffff1673ffffffffffffffffffffffffffffffffffffffff168152602001908152602001600020600082825461170191906131f3565b92505081905550816002600083815260200190815260200160002060006101000a81548173ffffffffffffffffffffffffffffffffffffffff021916908373ffffffffffffffffffffffffffffffffffffffff160217905550808273ffffffffffffffffffffffffffffffffffffffff168473ffffffffffffffffffffffffffffffffffffffff167fddf252ad1be2c89b69c2b068fc378daa952ba7f163c4a11628f55a4df523b3ef60405160405180910390a46117c0838383612009565b505050565b6060600082141561180d576040518060400160405280600181526020017f3000000000000000000000000000000000000000000000000000000000000000815250905061196d565b600082905060005b6000821461183f57808061182890613421565b915050600a826118389190613249565b9150611815565b60008167ffffffffffffffff811115611881577f4e487b7100000000000000000000000000000000000000000000000000000000600052604160045260246000fd5b6040519080825280601f01601f1916602001820160405280156118b35781602001600182028036833780820191505090505b5090505b60008514611966576001826118cc91906132d4565b9150600a856118db919061346a565b60306118e791906131f3565b60f81b818381518110611923577f4e487b7100000000000000000000000000000000000000000000000000000000600052603260045260246000fd5b60200101907effffffffffffffffffffffffffffffffffffffffffffffffffffffffffffff1916908160001a905350600a8561195f9190613249565b94506118b7565b8093505050505b919050565b6000816040516020016119859190612c4d565b6040516020818303038152906040528051906020012060001c9050919050565b611a3d82826040516024016119bb929190612e9c565b6040516020818303038152906040527f9710a9d0000000000000000000000000000000000000000000000000000000007bffffffffffffffffffffffffffffffffffffffffffffffffffffffff19166020820180517bffffffffffffffffffffffffffffffffffffffffffffffffffffffff8381831617835250505050611fdb565b5050565b8173ffffffffffffffffffffffffffffffffffffffff168373ffffffffffffffffffffffffffffffffffffffff161415611ab0576040517f08c379a0000000000000000000000000000000000000000000000000000000008152600401611aa790612f8a565b60405180910390fd5b80600560008573ffffffffffffffffffffffffffffffffffffffff1673ffffffffffffffffffffffffffffffffffffffff16815260200190815260200160002060008473ffffffffffffffffffffffffffffffffffffffff1673ffffffffffffffffffffffffffffffffffffffff16815260200190815260200160002060006101000a81548160ff0219169083151502179055508173ffffffffffffffffffffffffffffffffffffffff168373ffffffffffffffffffffffffffffffffffffffff167f17307eab39ab6107e8899845ad3d59bd9653f200f220920489ca2b5937696c3183604051611ba19190612e5f565b60405180910390a3505050565b611bb984848461155e565b611bc58484848461200e565b611c04576040517f08c379a0000000000000000000000000000000000000000000000000000000008152600401611bfb90612f0a565b60405180910390fd5b50505050565b606060405180602001604052806000815250905090565b6060611c2c82611353565b611c6b576040517f08c379a0000000000000000000000000000000000000000000000000000000008152600401611c62906130ca565b60405180910390fd5b6000611c75611c0a565b90506000815111611c955760405180602001604052806000815250611cc0565b80611c9f846117c5565b604051602001611cb0929190612c64565b6040516020818303038152906040525b915050919050565b600081600001549050919050565b60606000825190506000811415611cff5760405180602001604052806000815250915050611e8f565b60006003600283611d1091906131f3565b611d1a9190613249565b6004611d26919061327a565b90506000602082611d3791906131f3565b67ffffffffffffffff811115611d76577f4e487b7100000000000000000000000000000000000000000000000000000000600052604160045260246000fd5b6040519080825280601f01601f191660200182016040528015611da85781602001600182028036833780820191505090505b5090506000604051806060016040528060408152602001613c4b604091399050600181016020830160005b86811015611e4c5760038101905062ffffff818a015116603f8160121c168401518060081b905060ff603f83600c1c1686015116810190508060081b905060ff603f8360061c1686015116810190508060081b905060ff603f831686015116810190508060e01b90508084526004840193505050611dd3565b506003860660018114611e665760028114611e7657611e81565b613d3d60f01b6002830352611e81565b603d60f81b60018303525b508484525050819450505050505b919050565b611eae8282604051806020016040528060008152506121a5565b5050565b611ebb82611353565b611efa576040517f08c379a0000000000000000000000000000000000000000000000000000000008152600401611ef19061302a565b60405180910390fd5b80600660008481526020019081526020016000209080519060200190611f219291906123fd565b505050565b611fc0838383604051602401611f3e93929190612ecc565b6040516020818303038152906040527fe3849f79000000000000000000000000000000000000000000000000000000007bffffffffffffffffffffffffffffffffffffffffffffffffffffffff19166020820180517bffffffffffffffffffffffffffffffffffffffffffffffffffffffff8381831617835250505050611fdb565b505050565b6001816000016000828254019250508190555050565b60008151905060006a636f6e736f6c652e6c6f679050602083016000808483855afa5050505050565b505050565b505050565b600061202f8473ffffffffffffffffffffffffffffffffffffffff16612200565b15612198578373ffffffffffffffffffffffffffffffffffffffff1663150b7a026120586113bf565b8786866040518563ffffffff1660e01b815260040161207a9493929190612dea565b602060405180830381600087803b15801561209457600080fd5b505af19250505080156120c557506040513d601f19601f820116820180604052508101906120c29190612741565b60015b612148573d80600081146120f5576040519150601f19603f3d011682016040523d82523d6000602084013e6120fa565b606091505b50600081511415612140576040517f08c379a000000000000000000000000000000000000000000000000000000000815260040161213790612f0a565b60405180910390fd5b805181602001fd5b63150b7a0260e01b7bffffffffffffffffffffffffffffffffffffffffffffffffffffffff1916817bffffffffffffffffffffffffffffffffffffffffffffffffffffffff19161491505061219d565b600190505b949350505050565b6121af8383612223565b6121bc600084848461200e565b6121fb576040517f08c379a00000000000000000000000000000000000000000000000000000000081526004016121f290612f0a565b60405180910390fd5b505050565b6000808273ffffffffffffffffffffffffffffffffffffffff163b119050919050565b600073ffffffffffffffffffffffffffffffffffffffff168273ffffffffffffffffffffffffffffffffffffffff161415612293576040517f08c379a000000000000000000000000000000000000000000000000000000000815260040161228a9061304a565b60405180910390fd5b61229c81611353565b156122dc576040517f08c379a00000000000000000000000000000000000000000000000000000000081526004016122d390612f4a565b60405180910390fd5b6122e860008383612004565b6001600360008473ffffffffffffffffffffffffffffffffffffffff1673ffffffffffffffffffffffffffffffffffffffff168152602001908152602001600020600082825461233891906131f3565b92505081905550816002600083815260200190815260200160002060006101000a81548173ffffffffffffffffffffffffffffffffffffffff021916908373ffffffffffffffffffffffffffffffffffffffff160217905550808273ffffffffffffffffffffffffffffffffffffffff16600073ffffffffffffffffffffffffffffffffffffffff167fddf252ad1be2c89b69c2b068fc378daa952ba7f163c4a11628f55a4df523b3ef60405160405180910390a46123f960008383612009565b5050565b828054612409906133be565b90600052602060002090601f01602090048101928261242b5760008555612472565b82601f1061244457805160ff1916838001178555612472565b82800160010185558215612472579182015b82811115612471578251825591602001919060010190612456565b5b50905061247f9190612483565b5090565b5b8082111561249c576000816000905550600101612484565b5090565b60006124b36124ae8461316a565b613145565b9050828152602081018484840111156124cb57600080fd5b6124d684828561337c565b509392505050565b6000813590506124ed81613bc9565b92915050565b60008135905061250281613be0565b92915050565b60008135905061251781613bf7565b92915050565b60008151905061252c81613bf7565b92915050565b600082601f83011261254357600080fd5b81356125538482602086016124a0565b91505092915050565b60008135905061256b81613c0e565b92915050565b60006020828403121561258357600080fd5b6000612591848285016124de565b91505092915050565b600080604083850312156125ad57600080fd5b60006125bb858286016124de565b92505060206125cc858286016124de565b9150509250929050565b6000806000606084860312156125eb57600080fd5b60006125f9868287016124de565b935050602061260a868287016124de565b925050604061261b8682870161255c565b9150509250925092565b6000806000806080858703121561263b57600080fd5b6000612649878288016124de565b945050602061265a878288016124de565b935050604061266b8782880161255c565b925050606085013567ffffffffffffffff81111561268857600080fd5b61269487828801612532565b91505092959194509250565b600080604083850312156126b357600080fd5b60006126c1858286016124de565b92505060206126d2858286016124f3565b9150509250929050565b600080604083850312156126ef57600080fd5b60006126fd858286016124de565b925050602061270e8582860161255c565b9150509250929050565b60006020828403121561272a57600080fd5b600061273884828501612508565b91505092915050565b60006020828403121561275357600080fd5b60006127618482850161251d565b91505092915050565b60006020828403121561277c57600080fd5b600061278a8482850161255c565b91505092915050565b61279c81613308565b82525050565b6127ab8161331a565b82525050565b60006127bc826131b0565b6127c681856131c6565b93506127d681856020860161338b565b6127df81613557565b840191505092915050565b60006127f5826131bb565b6127ff81856131d7565b935061280f81856020860161338b565b61281881613557565b840191505092915050565b600061282e826131bb565b61283881856131e8565b935061284881856020860161338b565b80840191505092915050565b60008154612861816133be565b61286b81866131e8565b945060018216600081146128865760018114612897576128ca565b60ff198316865281860193506128ca565b6128a08561319b565b60005b838110156128c2578154818901526001820191506020810190506128a3565b838801955050505b50505092915050565b60006128e06032836131d7565b91506128eb82613568565b604082019050919050565b60006129036025836131d7565b915061290e826135b7565b604082019050919050565b6000612926601c836131d7565b915061293182613606565b602082019050919050565b60006129496024836131d7565b91506129548261362f565b604082019050919050565b600061296c6019836131d7565b91506129778261367e565b602082019050919050565b600061298f6063836131e8565b915061299a826136a7565b606382019050919050565b60006129b2600b836131e8565b91506129bd82613742565b600b82019050919050565b60006129d5602c836131d7565b91506129e08261376b565b604082019050919050565b60006129f8600d836131e8565b9150612a03826137ba565b600d82019050919050565b6000612a1b6038836131d7565b9150612a26826137e3565b604082019050919050565b6000612a3e602a836131d7565b9150612a4982613832565b604082019050919050565b6000612a616029836131d7565b9150612a6c82613881565b604082019050919050565b6000612a84602e836131d7565b9150612a8f826138d0565b604082019050919050565b6000612aa76002836131e8565b9150612ab28261391f565b600282019050919050565b6000612aca6020836131d7565b9150612ad582613948565b602082019050919050565b6000612aed601a836131d7565b9150612af882613971565b602082019050919050565b6000612b106031836131d7565b9150612b1b8261399a565b604082019050919050565b6000612b33600a836131e8565b9150612b3e826139e9565b600a82019050919050565b6000612b56602c836131d7565b9150612b6182613a12565b604082019050919050565b6000612b79602f836131d7565b9150612b8482613a61565b604082019050919050565b6000612b9c600a836131e8565b9150612ba782613ab0565b600a82019050919050565b6000612bbf6021836131d7565b9150612bca82613ad9565b604082019050919050565b6000612be2600a836131e8565b9150612bed82613b28565b600a82019050919050565b6000612c05601d836131e8565b9150612c1082613b51565b601d82019050919050565b6000612c286031836131d7565b9150612c3382613b7a565b604082019050919050565b612c4781613372565b82525050565b6000612c598284612823565b915081905092915050565b6000612c708285612823565b9150612c7c8284612823565b91508190509392505050565b6000612c948286612823565b9150612ca08285612823565b9150612cac8284612823565b9150819050949350505050565b6000612cc58287612854565b9150612cd18286612823565b9150612cdd8285612823565b9150612ce98284612823565b9150612cf4826129eb565b915081905095945050505050565b6000612d0d826129a5565b9150612d198284612823565b915081905092915050565b6000612d2f82612b26565b9150612d3b8284612823565b915081905092915050565b6000612d5182612b8f565b9150612d5d8285612823565b9150612d6882612982565b9150612d748284612823565b9150612d7f82612a9a565b91508190509392505050565b6000612d9682612bd5565b9150612da28284612823565b915081905092915050565b6000612db882612bf8565b9150612dc48284612823565b915081905092915050565b6000602082019050612de46000830184612793565b92915050565b6000608082019050612dff6000830187612793565b612e0c6020830186612793565b612e196040830185612c3e565b8181036060830152612e2b81846127b1565b905095945050505050565b6000604082019050612e4b6000830185612793565b612e586020830184612c3e565b9392505050565b6000602082019050612e7460008301846127a2565b92915050565b60006020820190508181036000830152612e9481846127ea565b905092915050565b60006040820190508181036000830152612eb681856127ea565b9050612ec56020830184612c3e565b9392505050565b60006060820190508181036000830152612ee681866127ea565b9050612ef56020830185612c3e565b612f026040830184612793565b949350505050565b60006020820190508181036000830152612f23816128d3565b9050919050565b60006020820190508181036000830152612f43816128f6565b9050919050565b60006020820190508181036000830152612f6381612919565b9050919050565b60006020820190508181036000830152612f838161293c565b9050919050565b60006020820190508181036000830152612fa38161295f565b9050919050565b60006020820190508181036000830152612fc3816129c8565b9050919050565b60006020820190508181036000830152612fe381612a0e565b9050919050565b6000602082019050818103600083015261300381612a31565b9050919050565b6000602082019050818103600083015261302381612a54565b9050919050565b6000602082019050818103600083015261304381612a77565b9050919050565b6000602082019050818103600083015261306381612abd565b9050919050565b6000602082019050818103600083015261308381612ae0565b9050919050565b600060208201905081810360008301526130a381612b03565b9050919050565b600060208201905081810360008301526130c381612b49565b9050919050565b600060208201905081810360008301526130e381612b6c565b9050919050565b6000602082019050818103600083015261310381612bb2565b9050919050565b6000602082019050818103600083015261312381612c1b565b9050919050565b600060208201905061313f6000830184612c3e565b92915050565b600061314f613160565b905061315b82826133f0565b919050565b6000604051905090565b600067ffffffffffffffff82111561318557613184613528565b5b61318e82613557565b9050602081019050919050565b60008190508160005260206000209050919050565b600081519050919050565b600081519050919050565b600082825260208201905092915050565b600082825260208201905092915050565b600081905092915050565b60006131fe82613372565b915061320983613372565b9250827fffffffffffffffffffffffffffffffffffffffffffffffffffffffffffffffff0382111561323e5761323d61349b565b5b828201905092915050565b600061325482613372565b915061325f83613372565b92508261326f5761326e6134ca565b5b828204905092915050565b600061328582613372565b915061329083613372565b9250817fffffffffffffffffffffffffffffffffffffffffffffffffffffffffffffffff04831182151516156132c9576132c861349b565b5b828202905092915050565b60006132df82613372565b91506132ea83613372565b9250828210156132fd576132fc61349b565b5b828203905092915050565b600061331382613352565b9050919050565b60008115159050919050565b60007fffffffff0000000000000000000000000000000000000000000000000000000082169050919050565b600073ffffffffffffffffffffffffffffffffffffffff82169050919050565b6000819050919050565b82818337600083830152505050565b60005b838110156133a957808201518184015260208101905061338e565b838111156133b8576000848401525b50505050565b600060028204905060018216806133d657607f821691505b602082108114156133ea576133e96134f9565b5b50919050565b6133f982613557565b810181811067ffffffffffffffff8211171561341857613417613528565b5b80604052505050565b600061342c82613372565b91507fffffffffffffffffffffffffffffffffffffffffffffffffffffffffffffffff82141561345f5761345e61349b565b5b600182019050919050565b600061347582613372565b915061348083613372565b9250826134905761348f6134ca565b5b828206905092915050565b7f4e487b7100000000000000000000000000000000000000000000000000000000600052601160045260246000fd5b7f4e487b7100000000000000000000000000000000000000000000000000000000600052601260045260246000fd5b7f4e487b7100000000000000000000000000000000000000000000000000000000600052602260045260246000fd5b7f4e487b7100000000000000000000000000000000000000000000000000000000600052604160045260246000fd5b6000601f19601f8301169050919050565b7f4552433732313a207472616e7366657220746f206e6f6e20455243373231526560008201527f63656976657220696d706c656d656e7465720000000000000000000000000000602082015250565b7f4552433732313a207472616e736665722066726f6d20696e636f72726563742060008201527f6f776e6572000000000000000000000000000000000000000000000000000000602082015250565b7f4552433732313a20746f6b656e20616c7265616479206d696e74656400000000600082015250565b7f4552433732313a207472616e7366657220746f20746865207a65726f2061646460008201527f7265737300000000000000000000000000000000000000000000000000000000602082015250565b7f4552433732313a20617070726f766520746f2063616c6c657200000000000000600082015250565b7f222c20226465736372697074696f6e223a20224120686967686c79206163636c60008201527f61696d656420636f6c6c656374696f6e206f6620737175617265732e222c202260208201527f696d616765223a2022646174613a696d6167652f7376672b786d6c3b6261736560408201527f36342c0000000000000000000000000000000000000000000000000000000000606082015250565b7f5345434f4e445f574f5244000000000000000000000000000000000000000000600082015250565b7f4552433732313a206f70657261746f7220717565727920666f72206e6f6e657860008201527f697374656e7420746f6b656e0000000000000000000000000000000000000000602082015250565b7f3c2f746578743e3c2f7376673e00000000000000000000000000000000000000600082015250565b7f4552433732313a20617070726f76652063616c6c6572206973206e6f74206f7760008201527f6e6572206e6f7220617070726f76656420666f7220616c6c0000000000000000602082015250565b7f4552433732313a2062616c616e636520717565727920666f7220746865207a6560008201527f726f206164647265737300000000000000000000000000000000000000000000602082015250565b7f4552433732313a206f776e657220717565727920666f72206e6f6e657869737460008201527f656e7420746f6b656e0000000000000000000000000000000000000000000000602082015250565b7f45524337323155524953746f726167653a2055524920736574206f66206e6f6e60008201527f6578697374656e7420746f6b656e000000000000000000000000000000000000602082015250565b7f227d000000000000000000000000000000000000000000000000000000000000600082015250565b7f4552433732313a206d696e7420746f20746865207a65726f2061646472657373600082015250565b7f4e6f206d6f72652063616e20626520697373756564204e46542e000000000000600082015250565b7f45524337323155524953746f726167653a2055524920717565727920666f722060008201527f6e6f6e6578697374656e7420746f6b656e000000000000000000000000000000602082015250565b7f54484952455f574f524400000000000000000000000000000000000000000000600082015250565b7f4552433732313a20617070726f76656420717565727920666f72206e6f6e657860008201527f697374656e7420746f6b656e0000000000000000000000000000000000000000602082015250565b7f4552433732314d657461646174613a2055524920717565727920666f72206e6f60008201527f6e6578697374656e7420746f6b656e0000000000000000000000000000000000602082015250565b7f7b226e616d65223a202200000000000000000000000000000000000000000000600082015250565b7f4552433732313a20617070726f76616c20746f2063757272656e74206f776e6560008201527f7200000000000000000000000000000000000000000000000000000000000000602082015250565b7f46495253545f574f524400000000000000000000000000000000000000000000600082015250565b7f646174613a6170706c69636174696f6e2f6a736f6e3b6261736536342c000000600082015250565b7f4552433732313a207472616e736665722063616c6c6572206973206e6f74206f60008201527f776e6572206e6f7220617070726f766564000000000000000000000000000000602082015250565b613bd281613308565b8114613bdd57600080fd5b50565b613be98161331a565b8114613bf457600080fd5b50565b613c0081613326565b8114613c0b57600080fd5b50565b613c1781613372565b8114613c2257600080fd5b5056fe416e204e465420772f20494420257320686173206265656e206d696e74656420746f2025734142434445464748494a4b4c4d4e4f505152535455565758595a6162636465666768696a6b6c6d6e6f707172737475767778797a303132333435363738392b2fa2646970667358221220d358a1f70b5f2a9a0dca9ac69cd0c1c5fc56e36ce04d12cc794f56e1ce4b85ed64736f6c634300080400333c73766720786d6c6e733d27687474703a2f2f7777772e77332e6f72672f323030302f73766727207072657365727665417370656374526174696f3d27784d696e594d696e206d656574272076696577426f783d273020302033353020333530273e3c7374796c653e2e62617365207b2066696c6c3a2077686974653b20666f6e742d66616d696c793a2073657269663b20666f6e742d73697a653a20323470783b207d3c2f7374796c653e3c726563742077696474683d273130302527206865696768743d2731303025272066696c6c3d27626c61636b27202f3e3c7465787420783d273530252720793d273530252720636c6173733d27626173652720646f6d696e616e742d626173656c696e653d276d6964646c652720746578742d616e63686f723d276d6964646c65273e",
  "linkReferences": {},
  "deployedLinkReferences": {}
}